{
  "contractName": "Election",
  "abi": [
    {
      "anonymous": false,
      "inputs": [
        {
          "indexed": true,
          "internalType": "uint256",
          "name": "_candidateId",
          "type": "uint256"
        }
      ],
      "name": "votedEvent",
      "type": "event"
    },
    {
      "constant": true,
      "inputs": [],
      "name": "candidatesCount",
      "outputs": [
        {
          "internalType": "uint256",
          "name": "",
          "type": "uint256"
        }
      ],
      "payable": false,
      "stateMutability": "view",
      "type": "function"
    },
    {
      "constant": false,
      "inputs": [
        {
          "internalType": "string",
          "name": "_name",
          "type": "string"
        }
      ],
      "name": "addCandidate",
      "outputs": [],
      "payable": false,
      "stateMutability": "nonpayable",
      "type": "function"
    },
    {
      "constant": true,
      "inputs": [],
      "name": "getCandidates",
      "outputs": [
        {
          "components": [
            {
              "internalType": "string",
              "name": "name",
              "type": "string"
            },
            {
              "internalType": "uint256",
              "name": "votes",
              "type": "uint256"
            },
            {
              "internalType": "uint256",
              "name": "id",
              "type": "uint256"
            }
          ],
          "internalType": "struct Election.Candidate[]",
          "name": "",
          "type": "tuple[]"
        }
      ],
      "payable": false,
      "stateMutability": "view",
      "type": "function"
    },
    {
      "constant": true,
      "inputs": [
        {
          "internalType": "uint256",
          "name": "_candidateId",
          "type": "uint256"
        }
      ],
      "name": "totalVotesFor",
      "outputs": [
        {
          "internalType": "uint256",
          "name": "",
          "type": "uint256"
        }
      ],
      "payable": false,
      "stateMutability": "view",
      "type": "function"
    },
    {
      "constant": false,
      "inputs": [
        {
          "internalType": "uint256",
          "name": "_candidateId",
          "type": "uint256"
        }
      ],
      "name": "vote",
      "outputs": [],
      "payable": false,
      "stateMutability": "nonpayable",
      "type": "function"
    },
    {
      "constant": true,
      "inputs": [],
      "name": "winner",
      "outputs": [
        {
          "internalType": "string",
          "name": "",
          "type": "string"
        }
      ],
      "payable": false,
      "stateMutability": "view",
      "type": "function"
    }
  ],
  "bytecode": "0x608060405234801561001057600080fd5b50610a47806100206000396000f3fe608060405234801561001057600080fd5b50600436106100625760003560e01c80630121b93f1461006757806306a49fce146100835780632d35a8a2146100a1578063462e91ec146100bf578063a805f1ca146100db578063dfbf53ae1461010b575b600080fd5b610081600480360361007c91908101906106d5565b610129565b005b61008b610247565b6040516100989190610867565b60405180910390f35b6100a961039b565b6040516100b691906108ab565b60405180910390f35b6100d960048036036100d49190810190610694565b6103a1565b005b6100f560048036036100f091908101906106d5565b61041c565b60405161010291906108ab565b60405180910390f35b610113610455565b6040516101209190610889565b60405180910390f35b600160003373ffffffffffffffffffffffffffffffffffffffff1673ffffffffffffffffffffffffffffffffffffffff16815260200190815260200160002060009054906101000a900460ff161561018057600080fd5b60008111801561019257506002548111155b61019b57600080fd5b60018060003373ffffffffffffffffffffffffffffffffffffffff1673ffffffffffffffffffffffffffffffffffffffff16815260200190815260200160002060006101000a81548160ff02191690831515021790555060008082815260200190815260200160002060010160008154809291906001019190505550807ffff3c900d938d21d0990d786e819f29b8d05c1ef587b462b939609625b684b1660405160405180910390a250565b60608060025460405190808252806020026020018201604052801561028657816020015b610273610565565b81526020019060019003908161026b5790505b50905060008090505b60025481101561039357600080600183018152602001908152602001600020604051806060016040529081600082018054600181600116156101000203166002900480601f0160208091040260200160405190810160405280929190818152602001828054600181600116156101000203166002900480156103525780601f1061032757610100808354040283529160200191610352565b820191906000526020600020905b81548152906001019060200180831161033557829003601f168201915b505050505081526020016001820154815260200160028201548152505082828151811061037b57fe5b6020026020010181905250808060010191505061028f565b508091505090565b60025481565b60026000815480929190600101919050555060405180606001604052808281526020016000815260200160025481525060008060025481526020019081526020016000206000820151816000019080519060200190610401929190610586565b50602082015181600101556040820151816002015590505050565b6000808211801561042f57506002548211155b61043857600080fd5b600080838152602001908152602001600020600101549050919050565b60606000600190506000600290505b60025481116104b057600080838152602001908152602001600020600101546000808381526020019081526020016000206001015411156104a3578091505b8080600101915050610464565b506000808281526020019081526020016000206000018054600181600116156101000203166002900480601f01602080910402602001604051908101604052809291908181526020018280546001816001161561010002031660029004801561055a5780601f1061052f5761010080835404028352916020019161055a565b820191906000526020600020905b81548152906001019060200180831161053d57829003601f168201915b505050505091505090565b60405180606001604052806060815260200160008152602001600081525090565b828054600181600116156101000203166002900490600052602060002090601f016020900481019282601f106105c757805160ff19168380011785556105f5565b828001600101855582156105f5579182015b828111156105f45782518255916020019190600101906105d9565b5b5090506106029190610606565b5090565b61062891905b8082111561062457600081600090555060010161060c565b5090565b90565b600082601f83011261063c57600080fd5b813561064f61064a826108f3565b6108c6565b9150808252602083016020830185838301111561066b57600080fd5b61067683828461099a565b50505092915050565b60008135905061068e816109ed565b92915050565b6000602082840312156106a657600080fd5b600082013567ffffffffffffffff8111156106c057600080fd5b6106cc8482850161062b565b91505092915050565b6000602082840312156106e757600080fd5b60006106f58482850161067f565b91505092915050565b600061070a83836107f9565b905092915050565b600061071d8261092f565b610727818561095d565b9350836020820285016107398561091f565b8060005b85811015610775578484038952815161075685826106fe565b945061076183610950565b925060208a0199505060018101905061073d565b50829750879550505050505092915050565b600061079282610945565b61079c818561097f565b93506107ac8185602086016109a9565b6107b5816109dc565b840191505092915050565b60006107cb8261093a565b6107d5818561096e565b93506107e58185602086016109a9565b6107ee816109dc565b840191505092915050565b6000606083016000830151848203600086015261081682826107c0565b915050602083015161082b6020860182610849565b50604083015161083e6040860182610849565b508091505092915050565b61085281610990565b82525050565b61086181610990565b82525050565b600060208201905081810360008301526108818184610712565b905092915050565b600060208201905081810360008301526108a38184610787565b905092915050565b60006020820190506108c06000830184610858565b92915050565b6000604051905081810181811067ffffffffffffffff821117156108e957600080fd5b8060405250919050565b600067ffffffffffffffff82111561090a57600080fd5b601f19601f8301169050602081019050919050565b6000819050602082019050919050565b600081519050919050565b600081519050919050565b600081519050919050565b6000602082019050919050565b600082825260208201905092915050565b600082825260208201905092915050565b600082825260208201905092915050565b6000819050919050565b82818337600083830152505050565b60005b838110156109c75780820151818401526020810190506109ac565b838111156109d6576000848401525b50505050565b6000601f19601f8301169050919050565b6109f681610990565b8114610a0157600080fd5b5056fea365627a7a723158201d35d791a36e9a8305fcc8d345fea5edafcd638640ed75dc98b475aacb69b1ff6c6578706572696d656e74616cf564736f6c63430005100040",
  "source": "// SPDX-License-Identifier: MIT\npragma solidity <0.9.0;\npragma experimental ABIEncoderV2;\n\ncontract Election {\n    struct Candidate {\n        string name;\n        uint votes;\n        uint id;\n    }\n\n    mapping (uint => Candidate) candidates;\n    mapping (address => bool) voters;\n\n    uint public candidatesCount;\n\n    event votedEvent (\n        uint indexed _candidateId\n    );\n\n    function addCandidate (string memory _name) public {\n        candidatesCount ++;\n        candidates[candidatesCount] = Candidate(_name, 0, candidatesCount);\n    }\n\n    function getCandidates() public view returns (Candidate[] memory) {\n        Candidate[] memory result = new Candidate[](candidatesCount);\n        for (uint i = 0; i < candidatesCount; i++) {\n            result[i] = candidates[i + 1];\n        }\n        return result;\n    }\n\n    function totalVotesFor(uint _candidateId) public view returns (uint) {\n        require(_candidateId > 0 && _candidateId <= candidatesCount);\n        return candidates[_candidateId].votes;\n    }\n\n    function vote (uint _candidateId) public {\n        // require that they haven't voted before\n        require(!voters[msg.sender]);\n\n        // require a valid candidate\n        require(_candidateId > 0 && _candidateId <= candidatesCount);\n\n        // record that voter has voted\n        voters[msg.sender] = true;\n\n        // update candidate vote Count\n        candidates[_candidateId].votes ++;\n\n        // trigger voted event\n        emit votedEvent(_candidateId);\n    }\n\n    function winner() public view returns (string memory) {\n        // find the candidate with the most votes\n        uint winnerId = 1;\n        for (uint i = 2; i <= candidatesCount; i++) {\n            if (candidates[i].votes > candidates[winnerId].votes) {\n                winnerId = i;\n            }\n        }\n\n        // return the winner\n        return candidates[winnerId].name;\n    }\n}",
  "sourcePath": "/Users/satishbabariya/Desktop/election/contracts/Election.sol",
  "compiler": {
    "name": "solc",
    "version": "0.5.16+commit.9c3226ce.Emscripten.clang"
  },
  "schemaVersion": "3.4.3",
  "updatedAt": "2021-11-16T09:19:53.595Z",
  "networkType": "ethereum",
  "devdoc": {
    "methods": {}
  },
  "userdoc": {
    "methods": {}
  }
}